:020000040000FA
:10000000C0122020D5000000D9000000DB00000055
:1000100000000000000000000000000000000000E0
:10002000000000000000000000000000DD000000F3
:100030000000000000000000DF000000E100000000
:10004000E3000000C51E0000E3000000E300000024
:10005000E3000000E3000000E3000000E300000014
:1000600000000000E3000000E300000000000000CA
:1000700000000000E3000000E3000000B54A0000BB
:10008000C5440000ED460000E3000000E30000006E
:10009000E3000000E300000000000000000000009A
:1000A000E3000000E300000000000000000000008A
:1000B000E300000000000000E3000000E300000097
:1000C0000348854600F038FD004800472D670000D2
:1000D000C012202003480047FEE7FEE7FEE7FEE7E8
:1000E000FEE7FEE7C1000000F8B500242546002920
:1000F00004DA0E46012400214042B141002B04DA0B
:100100001E46002352420125B34100F06FFB8C468E
:1001100017461E46AC4203D0002540428D41AC46F6
:10012000002C02D0002657429E4161463A46334693
:1001300001B0F0BD30B5434351435C18010C130CC2
:100140000D465D432C1980B292B20546554351438A
:100150000A0C09044D1962415843010C000440196E
:10016000514130BD10B5202A04DB0146203A9140B0
:10017000002010BD914020239C1A0346E340194300
:10018000904010BD10B5202A04DB0846203AD0402C
:10019000002110BD0B46D340D0402024A21A91402C
:1001A0000843194610BD10B5202A06DBCB170846B8
:1001B000203A1041C1170B4306E00B461341D040D3
:1001C0002024A21A91400843194610BD30B50446B8
:1001D0000020034600E05B1C934203D2E05CCD5C50
:1001E000401BF8D030BDF8B502464A40D40F42005B
:1001F0004B0052085B089A4202D20246084611465A
:100200004A0023D0C30D4A00DDB2120EAD1A202DD4
:1002100035DA49020126490AF6058A19002C00D070
:10022000524220214F1B1146B9402A411018C20DDD
:100230009A4221D0002C17D0012D08DCDA05801A53
:10024000D20F8019D207DBB200F008FBF8BDDA0547
:10025000801A012340001B06C01880185A428018DB
:10026000CA0F1043490007E04908C2071143DA05E5
:10027000801A80194008801800F0E8FAF8BD610083
:100280000122511A001BF7E70122D2075140AAE7C9
:100290000122D2075040A6E7024670B54A40D30F6C
:1002A000DB0740002DD04A002AD0010E140E0002B8
:1002B00012020919400A520A8418E50104465443FF
:1002C000000A120A2E045043A4194219200CC543F7
:1002D000AA18120C0125AD03521C521912047F39C1
:1002E000240400D0521C104301D44000491EC2B265
:1002F0000C06C0092018401C4008802A02D003E0E8
:10030000002070BD40084000002900DA002018439A
:1003100070BD70B502464A40D50F40004A00ED0757
:1003200040085208002814D0002A12D0C40DD30D62
:1003300041020120C0055202490A520AE41A091872
:1003400012187D34914201D3641C00E04900002C56
:1003500001DA002070BD0023914201D3891A0343C2
:10036000400849000028F7D100290AD0914202D163
:100370000121C90705E0914201D2012101E00121DB
:10038000C943E005C018401900F060FA70BD0000D4
:10039000F0B507460846584087B0C00F04904800A3
:1003A0000E46590040084908BC1A884105D2384613
:1003B00031461E4617460B46024658004008104379
:1003C0004CD0300D039040055900400D490D05906B
:1003D000401A0290402872DA18030121000B090527
:1003E0000843019004980092002805D001995242D8
:1003F0000020884100920190029840210A1A019938
:100400000098FFF7AFFE05460C466B4607CBFFF79B
:10041000CAFEC0197141039A0E0D0023D71756402A
:100420001A467A40164344D0049A002A2DD0029AE4
:10043000012A039A15DC1205C01A914101263605DE
:10044000001C7141D20F059ED207009301920296C3
:100450002A46234600F048FA07B0F0BD3846314638
:10046000FAE71605224A0F46B218C01AB741012111
:100470000905001C4F4100187F41114618187941A9
:10048000E20F10436D19644113E0E2076D08154354
:100490006408C2071443039A01261205C01A914149
:1004A0003605001C7141CE07400830434908C0188A
:1004B00051412A46234600F00AFACDE7FFE70498A7
:1004C00001224000C117121A00238B4104983146C3
:1004D000C417381AA141EEE730B40124E4076340A1
:1004E00030BC55E730B40124E407614030BC4FE72D
:1004F0000000E0FFF0B51FB488B00B990998002404
:1005000048400999C00F490049080991C0070B9953
:100510000090490049080B9109990898A64608439C
:100520001CD00B990A98084318D009980124400060
:10053000420D4800410D099824050003000B20439B
:1005400009900B980003000B20430B9050181C4996
:100550004018002201901446104605E00020014694
:100560000DB0F0BD032801DA034600E003239C46EA
:10057000C11A0AAE0AE05F0008ADED5B4F00F75B01
:100580007D430027AA187C41491C5B1E6145F2DDB2
:10059000410004AB5A522104120C0A43240C401CA3
:1005A0000828DFDB019802900099704601910090C5
:1005B000059B049A0799069800F096F9D0E7000089
:1005C0000DFCFFFF0122D207002800DB101A0029D2
:1005D00000DB511A814201D801207047002070478A
:1005E0000122D207002800DB101A002900DB511A73
:1005F000814201D201207047002070470122D207BA
:10060000002800DB101A002900DB511A814201D3B7
:1006100001207047002070470122D207002800DB2C
:10062000101A002900DB511A814201D101207047C4
:1006300000207047C217C10F504010B54018CA07BC
:100640009623002100F00AF910BD10B50022962370
:10065000114600F003F910BD0EB5C217C10F50408E
:10066000CA0740180021054B0293019200910A46E7
:100670000B4600F039F903B000BD00003304000060
:10068000C20F410040020123400ADB05D207090ED8
:10069000C0187F2901DA00207047962903DC9623D1
:1006A000591AC84001E096398840002AF4D04042E7
:1006B0007047000070B5CD0F4A0009030123090BF4
:1006C0001B0519430B4BED070024520D9A4201DA2A
:1006D000002070BD074B34339A4203DC9A1AFFF7AF
:1006E00051FD02E00449511888402C43F1D04042AA
:1006F00070BD0000FF030000CDFBFFFFC20FD2075B
:10070000400040080BD0C10D0723DB01C91840028F
:100710000905400A1143C2084007114370470020F1
:1007200001467047CB0FDB07490010B54908024668
:100730000A4307D00A0D07240903E401090B121B21
:10074000002A01DC002010BDC900440F0C43C10089
:10075000E018D205801800F079F810BD70B5044695
:10076000002903D000202022012310E0002801D01E
:100770000020C043C046C0460DE02546D5408D420E
:1007800005D30D469540641B1D46954040191546FE
:10079000521E002DF1DC214670BD000070B5002511
:1007A00004462E46002911D0002C01DA01254442CE
:1007B000002901DA012649422046FFF7CFFFB54262
:1007C00000D04042002D00D0494270BD002C02DA1A
:1007D0000121C90702E0002C00DD03490846C0469C
:1007E000C046214670BD0000FFFFFF7FF0B51FB47B
:1007F0000646002082B005464024019100901BE08F
:10080000019922460F463046FFF7BCFC049A059B2F
:10081000801A994110D3104619462246FFF7A2FCD0
:10082000361A8F410197224601200021009FFFF7D1
:1008300099FC38184D4100902046641E0028DFDCEA
:10084000019B00982946324607B0F0BD002904DA22
:10085000401C490001D140084000704770B400249A
:10086000050C05D11024000402D1002921D0112447
:10087000050E01D100020834050F01D10001241D2D
:10088000850F01D18000A41C002801DB4000641CFE
:10089000002908D020252E1B0D46F540A14000D090
:1008A00001212943084301061B1B000ADB1D02D559
:1008B000002070BC7047DB05181880180029F8DA92
:1008C000401C4900F5D170BC40084000704710B58D
:1008D000002B08DA0024401C614192185B411A4346
:1008E00001D14008400010BDF0B51FB482B00546EC
:1008F0000C0003D0084608F029FB02E008F026FBB4
:1009000020300246009021462846FFF72BFC049B2E
:10091000059A04460F4618431143084314D018465D
:1009200010431BD0009840210A1A18460599FFF77A
:1009300029FC05460E46009A05990498FFF712FC1B
:10094000084305D0012004E02046394607B0F0BD39
:100950000020C11705430E432C43374300990E98DE
:100960006305401A7905E40A00220C43FD0A0A30A7
:1009700002D500200146E9E70105101969410C9CE8
:100980000D9D00196941FFF7A2FFDFE7F0B50C46A6
:100990005C4085B0E40FE40703944C000026640833
:1009A00059009446490802460296224321D06246E5
:1009B0000A431ED06200570D4A000E032303550D53
:1009C000012402462C492405781B1B0B360B4018CA
:1009D00023432643614600901C46501AB44103D37A
:1009E0000098401C009002E0921800985B4100289B
:1009F00003DA0020014605B0F0BD00200121090501
:100A00000746864611E064461D46141BB54106D3D1
:100A10006546521BB341744607430C43A646CD07B7
:100A200040084908284392185B4105460D43EAD126
:100A30001046184313D06046194650407140084391
:100A400006D06046101AB34106D20122002306E008
:100A500000220123DB0702E00122D2435310009859
:100A600074460105381C6141029C039D00196941CF
:100A7000FFF72DFFBFE70000FD03000070B54B003E
:100A80005B0803430BD04B005C0D002633466542E8
:100A9000B341D417AD1AA34102DB0020014670BD5B
:100AA00012053018514170BD4A0009030123090B9A
:100AB0001B0519430A4B10B5520D9A4202DA002069
:100AC000014610BD064B34339A4203DC9A1AFFF7F5
:100AD00059FB10BD034BD218FFF744FB10BD0000BB
:100AE000FF030000CDFBFFFF10B5002904DB01244C
:100AF000E40740428C412146002B04DB1C460123C5
:100B0000DB075242A3418B4200D1824210BD00005C
:100B100010B5002904DB0124E40740428C41214642
:100B2000002B04DB1C460123DB075242A341994200
:100B300000D1904210BD00001CB509480090094842
:100B4000019005460126009C05E0E36807CC33438D
:100B50000C3C98471034AC42F7D3FFF7B5FA0000CD
:100B6000D4B50000F4B50000FEB500231A461B1AE8
:100B70008A4103DB0020014603B0F0BD4A000D03AB
:100B800001212D0B0905520D0D43D10702D100188B
:100B90006D41521E5110FF31FF31013100270446D3
:100BA0003E46384600970191024601210020090582
:100BB000FFF7E8FAC3197141F818324684468E46A9
:100BC0004A4161462846611A904104D36046241A7E
:100BD000954176461F46241900986D41401C0090AF
:100BE0003428E1DDF91930467041091BA84103D2D0
:100BF0000022D243134601E000221346019801056A
:100C0000381C7141FFF763FEB6E770B58C180578A4
:100C1000401C6B075B0F01D10378401C2A1106D1E1
:100C20000278401C03E006780E70401C491C5B1ED5
:100C3000F9D12B0705D40023521E0DD40B70491C8B
:100C4000FAE70378401CCB1A921C03E01D780D7064
:100C5000491C5B1C521EF9D5A142D8D3002070BD9F
:100C600083B0029001910092029801990843009983
:100C700008430549086003B07047C0460248006851
:100C8000072108407047C0460013404082B00190E1
:100C90000199881E001F00BFFCD2009002B070476F
:100CA00084B003900291019203980068009000982C
:100CB00001998843009000980299019A11400843D5
:100CC0000399086004B0704784B0039002910192C8
:100CD000039800680090009801998843009000985C
:100CE0000299019A114008430399086004B07047C3
:100CF00084B00390029101920398006800900098DC
:100D000001998843009000980299019A1140084384
:100D10000399086004B0704784B003900291019277
:100D2000039800680090009801998843009000980B
:100D30000299019A114008430399086004B0704772
:100D400084B003900291019203980068009000988B
:100D500001998843009000980299019A1140084334
:100D60000399086004B0704782B001900091009B25
:100D70000199034A88581843885002B07047C0460A
:100D80004810000082B001900091009801999522CE
:100D90005201885002B0704782B0019000910098D3
:100DA000019995225201885002B0704782B001909B
:100DB00000910098019995225201885002B0704725
:100DC00082B00190009100980199952252018850BB
:100DD00002B0704782B0019000910098019995226D
:100DE0005201885002B0704782B001900091009883
:100DF000019995225201885002B0704782B001904B
:100E00000091009B0199034A88581843885002B00A
:100E10007047C0462810000082B0019000910098F1
:100E20000199074A885002B07047C04682B00190CD
:100E3000009100980199024A885002B07047C0465C
:100E4000D012000081B0009000990120C202A64893
:100E5000885001B07047C04681B000900098810072
:100E6000444A0D48885001B07047C04610B584B060
:100E7000069C039002910192009302980199084305
:100E800000990843069908430349084303998900D8
:100E9000384A885004B010BD8100040081B0009031
:100EA00000988100334A8120885001B07047C046C5
:100EB00081B00090009881002E4A8120885001B0B6
:100EC0007047C04681B0009000988100294A0020F8
:100ED000885001B07047C04682B0019000910098E0
:100EE0001049084301998900224A885002B070478E
:100EF00010B584B0079C069C039002910192009368
:100F000002980199084300990843069908430799F4
:100F100008430449084303998900164A885004B0DD
:100F200010BDC0468000040082B00190009100987E
:100F300080210843019989000E4A885002B0704709
:100F400010B584B0079C069C039002910192009317
:100F500002980199084300990843069908430799A4
:100F600008438021084303998900024A885004B04D
:100F700010BDC0460480424082B0019000910198AB
:100F80002721C90140580099084002B0704782B03B
:100F90000190009101982721C9014058009908400B
:100FA00002B0704782B00190009101982721C901D9
:100FB00040580099084002B07047000081B000908E
:100FC00000996B4A6B48885001B0704782B001901D
:100FD0000091009801991B4A885002B07047C046A2
:100FE00082B00190009100980199164A885002B091
:100FF0007047C04682B00190009100980199114A53
:10100000885002B07047C04682B0019000910098AD
:1010100001990C4A885002B07047C04682B00190D6
:10102000009100980199074A885002B07047C04665
:1010300082B00190009100980199024A885002B054
:101040007047C0469012000082B001900091009B52
:101050000199034A88581843885002B07047C04627
:101060000C15000082B001900091009B01999D2019
:10107000420188581843885002B0704781B0014639
:10108000684601700178302048430249405801B059
:101090007047C0460011404081B000900099012087
:1010A000C2021148885001B07047C04681B000901C
:1010B00000992F4A0148885001B07047010000B1E3
:1010C00081B0009000991A4A88580123184388502B
:1010D00001B0704781B0009000990120C20202481F
:1010E000885001B07047C0460100002680B582B02C
:1010F000019000910198112109024018009A11896C
:101100005388194392791143084AFFF7C9FD0198A2
:1011100007494018009A9188D379194312781143EE
:101120005D229200FFF7BCFD02B080BD7F3300005E
:101130000411000081B0009000980349405810212C
:101140000840000901B070471011000081B0009004
:10115000009802494058C0B201B0704730110000F9
:1011600081B000900099024A0248885001B070474F
:1011700004080000030000B180B582B00190009126
:101180000198F24940180099024AFFF7D9FD02B0D0
:1011900080BDC046FF03000082B00190009100981E
:1011A00000780199044A88500098407801990122FA
:1011B0001203885002B070470410000080B584B05C
:1011C00000920A4601460098039102A90A7001AAFA
:1011D00010700398044BC0180978127811433F220D
:1011E000FFF7AEFD04B080BD0C11000082B001908D
:1011F000684601700078019945229201885002B03A
:101200007047000080B586B0059000F083F8FFE7D6
:1012100000F0A8F8012189030840884201D0FFE7C7
:10122000F6E70598417E2B48029001220392FFF7D2
:1012300073FD05982021415C274801900322FFF7A8
:101240006BFDFFF71BFD014603980491002104226A
:10125000FFF706FD01980599496A09681F4A116060
:101260000599496A49681E4A116004991D4A11602E
:101270000599C9694906490C7F221202FFF74CFD06
:101280000298059A11680907090B53681B039BB262
:10129000C91893681B071B0DC918D3681943136934
:1012A000194353691943127E11430F4AFFF734FD66
:1012B000039A5B490868120210430860FFE700F0D8
:1012C00051F8012149020840884201D0FFE7F6E7C2
:1012D00006B080BD20010B4024010B4028010B40CB
:1012E0002C010B400013404072FF0F005949086861
:1012F00001221207904308607047C04648490868B9
:1013000001229043086070474549086801229043D4
:101310000860704742490868012212029043086041
:101320007047C0463E490868012212029043086097
:101330007047C046474908680122120710430860F9
:101340007047C046714908680122120310430860C3
:101350007047C04602490868102210430860704771
:101360003C010B40014800687047C04604020B4036
:1013700081B001466846017000780249086001B0FA
:101380007047C04608030B4080B582B0014601A8F3
:10139000018001880F2002025C48FFF7D1FC02B0F7
:1013A00080BDC04680B582B0014601A801700078BA
:1013B00001030F2002033548FFF7C2FC02B080BDD5
:1013C00080B586B005AB01931880049103A8029004
:1013D0000270FFF793FF0198008800F023F804984B
:1013E00000F02EF802980E4A11680123194311608B
:1013F0000078C00700280DD0FFE7FFF79BFFFFE74D
:10140000FFF7B0FF012109020840884201D0FFE741
:10141000F6E702E0FFF76AFFFFE706B080BDC046CF
:1014200008010B4080B582B0014601A80180018807
:10143000032002030748FFF76FFC02B080BDC046DF
:1014400080B582B0019001990248FF22FFF764FC49
:1014500002B080BD10010B4081B0014668460170AA
:1014600000780249086001B07047C0460C010B408B
:1014700080B582B0014601A80180018801204202A6
:101480000248FFF75DFC02B080BDC04638010B404A
:1014900080B582B0014601A801700178024803229C
:1014A000FFF74EFC02B080BD00010B4080B582B05A
:1014B000014601A80170017814483022FFF740FC72
:1014C00002B080BD80B582B0014601A801700078ED
:1014D000FFF7C2FFFFE7FFF745FF0121490508407D
:1014E000884201D0FFE7F6E70849086801221204A4
:1014F00010430860FFE7FFF735FF10210840102870
:1015000001D0FFE7F7E702B080BDC04604010B4001
:1015100083B0029001A8017002993122D20189188A
:10152000009101780098890040180090009908689F
:10153000012212031043086003B0704781B000908D
:101540000099024A0120885001B07047081100003C
:1015500082B001900091009B0199034A885818437A
:10156000885002B07047C0462810000081B000903B
:1015700000990120C2020248885001B07047C0465D
:101580000100002683B0024602A802700191007893
:10159000009003283ED80098810001A0405887465B
:1015A000B1150000C7150000E1150000FB15000093
:1015B000019900200870019A022151600199886008
:1015C0000199C86027E00199012008700199002065
:1015D0004860019A4921C90191600199C8601AE0E7
:1015E0000199022008700199486001994920000280
:1015F000886001990020C8600DE0019903200870FF
:10160000019900204860019ADB21C901916001998C
:10161000C86000E0FFE703B0704781B00090009819
:10162000812149014058C0B201B0704780B588B0EF
:10163000079006910698407A02A90091FFF7A2FF51
:10164000009B07980699C968039A1B7800F022FA54
:1016500007980699496800F0CBFA00990798069A0E
:10166000127A0B78002100F0F7F9069800780190C3
:10167000002808D0FFE70198012811D0FFE7019862
:1016800002281AD026E00798CF4940180499069AF4
:10169000127C114302221143CC4AFFF715FB1AE0DA
:1016A0000798C94940180499069A127C11432222CE
:1016B0001143C64AFFF708FB0DE00798C2494018DE
:1016C0000499069A127C114312221143BF4AFFF774
:1016D000FBFA00E0FFE708B080BDC04680B58CB0E3
:1016E0000B900A910A984079C00700285BD0FFE769
:1016F0000A9800790790002804D0FFE7079820286F
:101700000CD017E00B9888210691022200F08AF98C
:1017100006990B98032200F085F918E00B98A94967
:101720000591022200F07EF905990B98032200F042
:1017300079F90CE00B980521C9010491022200F00F
:1017400071F904990B98032200F06CF9FFE70B98EC
:101750000022029202230193114600F07DF9029AC1
:101760000B9803230393114600F076F90199029B2D
:101770000B98009119461A4600F0C2F9029B039992
:101780000B98009119461A4600F0BAF9019B029A8B
:101790000B98114600F07EF9029A039B0B981146B4
:1017A00000F078F9FFE70A98006808900A98007935
:1017B00008A908710A98807988710B9800F080F860
:1017C0000CB080BD80B584B003900291039802995B
:1017D000496800F00DFA029800780190222856D846
:1017E0000198810001A040588746C0468518000036
:1017F0008F180000851800008F1800008F18000057
:101800008F1800008F1800008F1800008F1800003C
:101810008F1800008F1800008F1800008F1800002C
:101820008F1800008F1800008F1800007918000032
:101830008F180000791800008F1800008F18000022
:101840008F1800008F1800008F1800008F180000FC
:101850008F1800008F1800008F1800008F180000EC
:101860008F1800008F1800008F18000079180000F2
:101870008F1800007918000003980121490700F033
:10188000A9F905E00398002100F0A4F900E0FFE7C2
:101890000398029909690022009200F051F9009B17
:1018A00003980299C9681A4600F0D6F80299087898
:1018B000097A08430399D94A885004B080BDC046CC
:1018C00080B58AB00990089108980079079000289F
:1018D00004D0FFE70798202812D029E0099808993A
:1018E0000968491E00F084F90998882106910022B0
:1018F00000F098F806990998012200F093F82AE080
:10190000099808990968491E00F072F909982D494B
:101910000491002200F086F80499099801220592AA
:1019200000F080F805990998490700F053F912E092
:10193000099808990968490800F05AF90998052199
:10194000C9010391002200F06DF803990998012262
:1019500000F068F8FFE709980023019319461A463A
:1019600000F07AF8019A099801230293114600F0D9
:1019700073F8019B0998009319461A4600F0C0F8C5
:10198000019B02990998009119461A4600F0B8F88F
:10199000019B099819461A4600F07CF8019A029BAF
:1019A0000998114600F076F809989C494018089A61
:1019B00011799279114302221143044AFFF784F905
:1019C0000AB080BD0104000004180000BFFF003011
:1019D00081B000900099D04AD048885001B070473B
:1019E00082B0019000910098019911221202885052
:1019F00002B0704780B584B00390029101A80270D4
:101A00000399224A891800910178009889004018AA
:101A100000900098029907229204FFF755F904B04C
:101A200080BDC04680B584B00390029101A80270C9
:101A30000399074A89180091017800988900401895
:101A4000009000980299034AFFF73EF904B080BD68
:101A500070180000DBB6C1FF10B586B00590049188
:101A6000039202A803700599084A89180191017828
:101A7000019889004018019001980499039A114334
:101A8000034AFFF721F906B010BDC0463018000028
:101A90007777020010B586B005900491039202A8F2
:101AA000037005993122D2018918019101780198BA
:101AB00089004018019001980499039A11438F22DC
:101AC000FFF702F906B010BD10B586B0059004917D
:101AD000039202A8037005993122D201891801915D
:101AE0000178019889004018019001980499039A9F
:101AF00011430B221202FFF7E7F806B010BD0000F9
:101B000010B587B000910446009809990694059095
:101B10000492039302A801700699084A891801915A
:101B200001780198890040180190059804990843AC
:101B3000039908430199086007B010BD50180000D0
:101B400084B00390029101A802700399064A891893
:101B5000009101780098890040180090029800993F
:101B6000086004B07047C0461018000082B00190B1
:101B70000091009800780199844A88500098407834
:101B80000199012212038850009880780199024A35
:101B9000885002B07047C0460C11000010B586B0E6
:101BA00001930B4601460198059104A90B8003ABF4
:101BB0001A8002AA10800598184C001909881B8801
:101BC000194312881143024AFFF7BAF806B010BD54
:101BD00080FF000080B582B00190009101980F490C
:101BE0004018009903221207FFF76EF802B080BD7B
:101BF00082B00190009100980199024A885002B089
:101C00007047C0460818000081B000900099034A50
:101C1000885801231843885001B070470418000009
:101C200081B0009000991120020288580123984346
:101C3000885001B0704781B00090009911200202D5
:101C4000885801231843885001B0704782B0019032
:101C50000091009B0199034A88581843885002B0AC
:101C60007047C0462810000081B000900099012004
:101C7000C2020248885001B07047C04601000026E9
:101C800081B000900098812149014058C0B201B054
:101C90007047000080B582B0019000910198FFF775
:101CA000BFFF0198112109024018009A118893780A
:101CB000194392881143084AFFF71AF801982A49F4
:101CC0004018009A9179D3791943127A11437E22F0
:101CD000FFF70EF802B080BD1867020081B00090D7
:101CE0000098034940580121084001B07047C046A0
:101CF0000811000081B00090009802494058C0B21D
:101D000001B070472411000081B000900099024A90
:101D10000248885001B0704704080000030000B179
:101D200080B584B003900291019203980B4940184A
:101D300002990B4AFFF704F803980A4940180199E1
:101D40003F22FEF7FDFF0399074A881889580122B0
:101D50001140FEF7F5FF04B080BDC0461011000031
:101D6000FFFF0000141100000411000082B0019078
:101D70000091009800780199044A885000984078B2
:101D8000019901221203885002B070470810000028
:101D900080B582B00190009101981121090240188C
:101DA00000990322D203FEF7CBFF02B080BD82B0C0
:101DB000019068460170007801998922520188508B
:101DC00002B0704780B582B001AB0093002018705C
:101DD00068207521012204F03FFA314806F052FCD8
:101DE00000980078682802D0FFE702F01DFF05F098
:101DF0007FFA002852D1FFE7782006F06FFA00281A
:101E000004D1FFE7274806F03DFCFFE7782005F006
:101E1000D9F8002804D1FFE7234806F033FCFFE798
:101E2000C82006F0E5F9002804D1FFE71F4806F0B6
:101E300029FCFFE703F06CF900280DD1FFE71C48EF
:101E400004F0A4FA03F0D8FB002804D1FFE71948F6
:101E500006F018FCFFE7FFE7FF20743002F0C8FF30
:101E6000002804D1FFE7144806F00CFCFFE7C82067
:101E700003F0DAFA002804D1FFE7104806F002FC6C
:101E8000FFE706F037FB012006F03EF8002804D1FA
:101E9000FFE70B4806F0F6FBFFE7FFE702B080BD67
:101EA00040B40000EDB3000095B400007AB4000027
:101EB0007E042020F0B40000CCB4000059B400002F
:101EC000AEB4000080B584B0002002900120FFF77E
:101ED000D5F802900298012809D1FFE70548009043
:101EE00005480649064A074B01F014FDFFE704B018
:101EF00080BDC046C6042020D0042020100520202C
:101F000040052020C404202080B586B005AA009298
:101F1000107004A80190017003A9029100200870BC
:101F200000F02CF90098007800F0A0F802990398CE
:101F3000401C087000F066F80198007800F096F8F0
:101F400002990398401C087000F05CF800F016F944
:101F50000598401CC0B200F089F802990398401C13
:101F6000087000F04FF800F00BF80299087001209B
:101F700000F0C4F800F02CF90298007806B080BD9B
:101F800080B584B02120FEF767FF02A90020087009
:101F900003A90870FFE703A8007807282DDCFFE7F6
:101FA0000120009041039A480190FFF741F8009901
:101FB0000198029A520002AB1A700903FEF7F2FF71
:101FC000C004002804D5FFE70120002804D109E05F
:101FD0000120002806D1FFE702980121084302A949
:101FE0000870FFE7012041038948FEF7FDFEFFE787
:101FF0000398401C03A90870CDE702A8007804B03C
:1020000080BDC04680B584B0012001904103804866
:102010000290FFF70DF82120FEF71EFF01990298AC
:102020000903FEF7BFFFC004002804D5FFE7012025
:10203000002804D10DE0012000280AD1FFE701208B
:10204000009041037248FEF7CFFE009803A9087084
:1020500008E0012041036E48FEF7C6FE03A90020F8
:102060000870FFE703A8007804B080BD80B586B093
:1020700005A908702120FEF71BFF01200103039131
:1020800063480290FEF7D4FF02980399FEF7CEFE54
:1020900004A900200870FFE704A80078072826DCC0
:1020A000FFE705A8007804A90A788021D1400842FA
:1020B00006D0FFE7012001035548FEF7B9FF05E010
:1020C000012001035248FEF78FFEFFE70120410384
:1020D00001914F480090FEF7ABFF00980199FEF781
:1020E00083FEFFE70498401C04A90870D4E7012090
:1020F00001034748FEF79CFF06B080BD80B588B05D
:1021000007A9069108702120FEF7D2FE0120049055
:10211000010303913E480590FEF78AFF0399059855
:10212000FEF784FE049905984903FEF75DFE0698C4
:102130000078002806D0FFE7012001033448FEF7AD
:1021400077FF05E0012001033148FEF74DFEFFE770
:1021500000BF01200190410300912D480290FEF73D
:1021600067FF0099029800BFFEF73EFE01990298B2
:102170000903FEF75DFF08B080BDC04680B584B09E
:102180002120FEF795FE01200090010301912048D7
:102190000290FEF74DFF01990298FEF747FE009965
:1021A000029849030391FEF743FF01990298FEF755
:1021B0001BFE01990298FEF73BFF01990298FEF77A
:1021C00013FE02980399FEF70FFE04B080BDC046CF
:1021D00080B584B02120FEF76BFE01200190010341
:1021E0000391F6480290FEF723FF02980399FEF749
:1021F0001DFE02980399FEF7F7FD01990298490325
:10220000FEF716FF02980399FEF712FF04B080BD97
:1022100000000A4080B584B00B46014603A8017057
:1022200002A90B70019200780978FFF76DFE019901
:102230000870012004B080BD10B588B00C4601467E
:1022400007A8017006A90C7005AC227004AA0292BE
:1022500013700078097803AAFFF7DCFF0298007872
:10226000002809D0FFE703A8007805A90A78012112
:1022700091400843019008E003A8007805A90A7876
:102280000121914088430190FFE7019803AA107053
:1022900007A8007806A90978127800F050F808B06D
:1022A00010BDB0B588B014460D4601460C9A06A87C
:1022B000017005A90D7004AD2C7003AC237002AB46
:1022C0001A700078097801AAFFF7A4FF00282ED021
:1022D000FFE704A80578691CFF231A468A4003A972
:1022E0000C78641BE41DE3401A436B461A700A78AD
:1022F0000821891A029A8A4002A90A7002780720E6
:10230000821A0878D040087000990198084001AA04
:102310001070029901980843107006A8007805A96A
:102320000978127800F00BF807A9087003E007A9F4
:1023300000200870FFE707A8007808B0B0BD80B59E
:1023400084B00B46014603A8017002A90B7001ABD3
:102350001A7000780978012200F002F804B080BDFC
:1023600010B58AB009AC0194207008A802900170E1
:1023700007A80270069305A9039100200490087035
:10238000FFF7FCFE01980078FFF770FEFFF73AFEBA
:1023900002980078FFF76AFEFFF734FE039904986D
:1023A0000870FFE705A8007807A9097888420EDAC7
:1023B000FFE7069805A90978405CFFF757FEFFF78D
:1023C00021FEFFE70598401C05A90870EAE7FFF722
:1023D000FFFE01200AB010BD80B58EB00DA900200F
:1023E000099008800CA908800BA908700A9042483F
:1023F000069080210591FEF7EDFC0698402107919B
:10240000FEF7E8FC50200890FEF740FC059906987E
:10241000FEF704FE06980799FEF700FE0898FEF7FF
:1024200035FC09980A90FFE70A980F2859DCFFE766
:10243000314804901021FEF7CDFC04980121C90514
:10244000FEF7C8FC0A98002818D0FFE72A48202188
:102450000391FEF791FD03990840400901280CD132
:10246000FFE70A98012181400D9808430DA90880D3
:102470000B98401C0BA90870FFE7FFE70A980F288C
:1024800019D0FFE70120C10602911B48FEF774FD39
:1024900002990840C00E01280CD1FFE70A980121DB
:1024A00081400C9808430CA908800B98401C0BA98C
:1024B0000870FFE7FFE750200190FEF7E7FB0E48AA
:1024C00000901021FEF7AAFD00980121C905FEF732
:1024D000A5FD0198FEF7DAFBFFE70A98401C0A9079
:1024E000A2E70D98054908800C98054908800BA8BB
:1024F00000780EB080BDC04600200A40B8082020F9
:10250000BA08202080B582B06946002008702A49A8
:102510000878401C0870012001042848FEF737FDA8
:10252000C00300280DD4FFE725480078012808DC07
:10253000FFE721490020087021490878401C0870F5
:1025400018E0012001041D48FEF721FDC00300280A
:102550000FD5FFE71A48007802280AD1FFE718498B
:10256000002008701449087016490878401C08704B
:10257000FFE7FFE7104800783D2814DBFFE70E492E
:10258000002008700F480078012805DBFFE70D48A0
:10259000007869460870FFE70A4900200870009833
:1025A00001A9087003E001A900200870FFE701A855
:1025B000007802B080BDC046C004202000000A4060
:1025C000C2042020C104202010B588B007AC0094BC
:1025D000208006A80290018005A80190028004A82E
:1025E000039003802A2000F0FFFC0098008800F090
:1025F00011FD0198008800F00DFD2B2000F0F4FC87
:102600000298008800F006FD0398008800F002FDA3
:102610002C2000F0E9FC08B010BD80B584B00B465A
:1026200003A9087002A8037001920A780378104683
:102630001946FFF7C9FF01A8008800F0EBFC04B0C1
:1026400080BDB0B588B014460D4601460C9A07A867
:10265000018006A90D8005AD2C8004AC238003AB5E
:102660001A80059A079BD31A049A069C121B5A4398
:1026700002AB1A8000880988059A521E049B5B1ED3
:1026800092B29BB2FFF7A0FFFFE702AA1088411E9B
:10269000118000280AD0FFE703A80190407800F0DD
:1026A000D3FC0198007800F0CFFCEEE708B0B0BD95
:1026B00080B596B001201190810201918748039066
:1026C000FEF774FB8648FEF7E1FA01990398FEF7DE
:1026D00091FC84480290FEF7D9FA03981199890673
:1026E000FEF788FC0298FEF7D1FA03981199890346
:1026F000FEF75CFB112000F077FC7B48FEF7C6FA82
:10270000B12000F071FC0520159000F092FC3C20F7
:10271000049000F08EFC049800F08BFCB22000F0D6
:1027200063FC159800F085FC049800F082FC049886
:1027300000F07FFCB32000F057FC159800F079FC06
:10274000049800F076FC049800F073FC159800F0F3
:1027500070FC049800F06DFC049800F06AFCB42052
:1027600000F042FC03200A9000F063FCC0200690B9
:1027700000F03AFC2820089000F05BFC082000F0F4
:1027800058FC0420129000F054FCC12000F02CFCF6
:10279000069800F04EFCC22000F026FC0D200B90A5
:1027A00000F047FC0020109000F043FCC32000F034
:1027B0001BFC8D20059000F03CFC2A20079000F0C7
:1027C00038FCC42000F010FC059800F032FCEE202C
:1027D00000F02FFCC52000F007FC1A2000F029FCB7
:1027E000362000F001FC069800F023FCE02000F009
:1027F000FBFB129800F01DFC222000F01AFC0720C1
:1028000000F017FC0A2000F014FC2E20099000F0C4
:1028100010FC302000F00DFC25200E9000F009FC8B
:10282000079800F006FC089800F003FC26200C90A6
:1028300000F0FFFB099800F0FCFB3A20149000F038
:10284000F8FB109800F0F5FB119800F0F2FB0A98E5
:1028500000F0EFFB1320139000F0EBFBE12000F001
:10286000C3FB129800F0E5FB162000F0E2FB062007
:1028700000F0DFFB0B9800F0DCFB2D200F9000F048
:10288000D8FB0C9800F0D5FB232000F0D2FB2720CA
:102890000D9000F0CEFB0D9800F0CBFB0E9800F0F1
:1028A000C8FB0F9800F0C5FB3B2000F0C2FB10985E
:1028B00000F0BFFB119800F0BCFB129800F0B9FBD0
:1028C000139800F0B6FB149800F08EFB159800F0FA
:1028D000B0FB292000F088FB16B080BD00200A4024
:1028E00000B4C40400127A00007C9200F0B597B0E6
:1028F00014460D4606461E991D9A1C9816AF019760
:102900003E8015AE0296358014AD03952C7013AC45
:10291000238012AB188011A80490027010AA1170C5
:102920000CAA002105911170169909AA118000784E
:1029300041080EA8069001700178C8080790490761
:10294000401C0029089001D107980890049B069A22
:1029500002990198039D089E1C7874430AAE348046
:10296000149C203C2C700088098812788218521E12
:102970001B78CB185B1E92B29BB2FFF725FE059821
:102980000BA90880FFE70BA800880AA909888842DC
:1029900000DB88E011A800780C280CD1FFE714A810
:1029A00000780C214143424840180BA90988405C3B
:1029B0000FA9087011E011A8007810280BD1FFE7CB
:1029C00014A800780101394840180BA90988405C17
:1029D0000FA9087000E066E0FFE70DA9002008706D
:1029E000FFE70DA80078072857DCFFE710A800785C
:1029F000002824D1FFE70FA800780DA90978C84066
:102A0000C007002805D0FFE713A8008800F002FBEC
:102A100004E012A8008800F0FDFAFFE70C98411CC2
:102A20000CA8017000780EA90978FDF797FE00291F
:102A300004D1FFE70CA9002008702EE027E00FA8C2
:102A400000780DA90978C840C007002809D0FFE721
:102A500016A8007815A9097813AA1288FFF7DDFDDA
:102A6000FFE71698411C16A80180008809A909886B
:102A7000401A0EA90978884208D1FFE7099816A9DB
:102A800008801598401C15A9088006E0FFE7FFE7BD
:102A90000D98401C0DA90870A3E7FFE70B98401C98
:102AA0000BA908806FE717B0F0BDC046D8A00000A2
:102AB0000A002020F0B591B014460D46064618983D
:102AC0001799169A10AF3E800FAE35800E940DAC5C
:102AD00023700CAB1A800BAA11800AA908700E98FB
:102AE0000021FDF78BFD002828D1FFE710A8008802
:102AF0000FA9089109880CAC23880BAA09921288A7
:102B00000AAD07952D7800260296019500922D2298
:102B1000FFF7ECFE079B0899099A10981E78730836
:102B2000C01809880DAB1B78248815880E9A029668
:102B30000195009480B200F0BDF927E010A800884C
:102B40000FA9059109880CAC23880BAA069212885C
:102B50000AAD04952D7800260296019500922B224D
:102B6000FFF7C4FE049B0599069A10981E78730817
:102B7000C01809880DAB1B78248815880E9A029618
:102B80000195009480B200F095F9FFE711B0F0BD17
:102B9000F0B58FB01C461546079106460798169962
:102BA000159A149B0EAF3E800DAE30800CA80580A8
:102BB0000BAD2C700AAC238009AB1A8008AA1170E7
:102BC00000880004002828D5FFE70EA800880DA97A
:102BD000069109880AAC238809AD2A8808AE0596B3
:102BE000367800270297019600922D22FFF77EFE8D
:102BF000059A06990E9816787208801809880C9A1A
:102C0000524292B20BAB1B7824882D880296019514
:102C1000009480B200F067F826E00EA800880DA9A5
:102C2000049109880AAC238809AD2A8808AE039666
:102C3000367800270297019600922B22FFF756FE66
:102C4000039A04990E9816787208801809880CAABD
:102C500012880BAB1B7824882D880296019500946E
:102C600080B200F040F8FFE70FB0F0BDF0B58DB0D6
:102C700014460D46064614981399129A0CAF3E80DE
:102C80000BAE35800A9409AC238008AB1A8007AAE2
:102C9000117006A90870FFE70A980078002820D074
:102CA000FFE70CA8059000880BA909880A9A1278FA
:102CB00009AB1B8808AC248807AD04952D7806AEB7
:102CC0003678029601950094FFF710FE0498059956
:102CD000007842080C98801808800A98401C0A90D6
:102CE000DAE70DB0F0BDF0B591B014460D460646DA
:102CF00018981799169A10AF3E800FAE35800EAD1A
:102D00002C800DAC23700CAB1A800BAA11800AA981
:102D1000087007AA002010700978490806AA1170E7
:102D200009A90870FFE709A800780DA90978884269
:102D300063DAFFE70EA8008804900D990998C04354
:102D40004018C1B20A20059005F0BCFB014604986A
:102D5000FDF704FD0599FDF701FD08A8017007A81E
:102D6000007800282AD1FFE709A800780DA9097882
:102D7000491E884222DAFFE708A80078002818D107
:102D8000FFE7109809A90A7806A909785143401865
:102D90000FA909880CAA13880BAA12880AAC2478F8
:102DA000002502950194009280B22022FFF79EFD3B
:102DB0001EE007A901200870FFE7FFE7109809A9A6
:102DC0000A7806A90978514340180FA90988089A7A
:102DD00030320CAB1B880BAC24880AAD2D78002652
:102DE00002960195009480B2D2B2FFF77FFDFFE713
:102DF0000998401C09A9087095E711B0F0BD70B59D
:102E00008CB00C460546119810990BAE35800AAD72
:102E10002C8009AC228008AA138007AA118006A979
:102E200008700B9805A9088004A900200870FFE726
:102E300004A800780F283ADCFFE709A8008804A955
:102E40000978C840C007002812D0FFE705A800880D
:102E50000AA9098808AA138807AA128806AC247848
:102E600000250295019400923122FFF73FFD11E009
:102E700005A800880AA9098808AA138807AA128841
:102E800006AC247800250295019400923022FFF7C9
:102E90002DFDFFE706A8007841080598401805A910
:102EA0000880FFE70498401C04A90870C0E70CB034
:102EB00070BD0000F0B591B014460D460646189955
:102EC0001798169A10AF3E800FAE35800E940DAC59
:102ED00023700CAB1A800BAA10800AA8017000782E
:102EE000400807A908700E980021FDF787FB00280D
:102EF00006D1FFE70E980121C90748400E90FFE771
:102F00000E983849FDF7C8F9FDF7BAFB069009A9F4
:102F100000200870FFE709A800780DA90978884209
:102F20005DDAFFE7069804900D990998C0434018B0
:102F3000C1B20A20059005F0C5FA01460498FDF7D4
:102F40000DFC0599FDF70AFC08A8017009A8007896
:102F50000DA90978891E884222D1FFE710980DA992
:102F6000039109788A1E07A90978514340180FA9CF
:102F700009880CAA13880BAA12880AAC24780025A9
:102F800002950194009280B22E22FFF7AFFC0399C4
:102F90000998401C09AA10700D98401C0870FFE7A2
:102FA000109809A90A7807A90978514340180FA970
:102FB0000988089A30320CAB1B880BAC24880AAD08
:102FC0002D78002602960195009480B2D2B2FFF7C8
:102FD0008DFCFFE70998401C09A908709BE711B018
:102FE000F0BDC0460000C84280B584B003A900917E
:102FF00008700120C10202912A480190FDF7D6FE17
:103000000098007800F020F801980299FDF7F2FF8F
:1030100004B080BD80B582B0014601A80090018057
:10302000407800F011F80098007800F00DF802B038
:1030300080BD80B582B0014601A80180007800F013
:1030400003F802B080BD000080B584B003A90191EF
:10305000087002A900200870012081031148FDF7C3
:10306000A5FE019801781048FEF7C0F8FFE70E486A
:10307000FEF760F8002801D0FFE7F8E70A48FEF7FE
:1030800065F802A90870FFE70748FEF753F8002823
:1030900001D0FFE7F8E7012081030248FDF7AAFF0E
:1030A00004B080BD00200A4000A0464080B582B038
:1030B000022000F012F8032000F02DF8002001900B
:1030C00000F01AF8019800F04FF8019800F03FF86E
:1030D000019800F02FF802B080BD80B582B00146A3
:1030E00001A8017000780090D0206B2102220323F8
:1030F000FFF7D7F802B080BD80B582B0014601A8C5
:10310000017000780090D0201C2104220223FFF7D8
:10311000C8F802B080BD80B582B0014601A8017038
:1031200000780090D0201B2104220223FFF7B9F879
:1031300002B080BD80B582B0014601A8017003785D
:10314000D02037210122FFF777F802B080BD80B58B
:1031500082B0014601A801700378D0206A210522BF
:10316000FFF76AF802B080BD80B582B0014601A8C1
:1031700001700378D0206B210622FFF75DF802B0C2
:1031800080BD000080B594B0129011A8018010A8F5
:10319000028000210F91405E8749884205DBFFE7EE
:1031A0001298008B13A9088001E1002110A8405E4D
:1031B0008249884205DCFFE71298008B13A908803A
:1031C000F5E0FFE711981099401A12994882129879
:1031D0001221405E7A49884205DBFFE712994B20B5
:1031E000000148820BE012981221405E7549884226
:1031F00004DCFFE7129974484882FFE7FFE7129862
:103200004168079112210A91405EFDF713FA0146C9
:103210000798FDF741F801460A986C4A0C92116034
:1032200012990A680892085E14220992895E401A6F
:10323000FDF700FA01460898FDF72EF8099A0146B5
:103240000A98634B0D93196012998B680B93085E73
:103250008A5E5200801A1622895E4018FDF7EAF94C
:1032600001460B98FDF718F80C9902460D98594B3A
:103270000E931A60129B9A8ADA82129B5A8A9A8259
:1032800000680968FCF7AFFF0E990968FCF7ABFF0F
:103290000F900F985049FDF795F9002803D1FFE7EB
:1032A0004D480F90FFE70F984C49FDF7A7F900280C
:1032B00003D1FFE749480F90FFE712980590C068D7
:1032C00000900F99FCF78FFFFDF718FA024600985F
:1032D00001920291FDF712FA414A424BFDF70AF9B9
:1032E0000246019803920A46029904923E4A3F4BD5
:1032F000FDF700F9039A049BFDF74AF8FDF712FA6F
:103300000599C86012980690C068FDF7B9F906994A
:10331000088312981821405E332805DBFFE71299D5
:10332000088BC83008830DE012981821405E3221C6
:10333000C943884205DCFFE71299088BC838088327
:10334000FFE7FFE71298C0682949FDF73BF900281D
:1033500004D1FFE712992648C8600CE01298C068B3
:103360002449FDF74BF9002804D1FFE712992148C1
:10337000C860FFE7FFE712981821405E7D21C90071
:10338000884204DBFFE712991B480883FFE7129885
:103390001821405E1949884204DCFFE71299184859
:1033A0000883FFE71298008B13A90880FFE700212C
:1033B00013A8405E14B080BD21030000DFFCFFFFB6
:1033C000B10400004FFBFFFF50FB0000BC042020B5
:1033D000CC042020B804202000803B45000016C506
:1033E000666666666666E63F333333333333D33F10
:1033F00000409C4500007AC5E703000018FCFFFF71
:1034000019FC000010B584B0039002910192009362
:1034100002980399086001980399486000980399FD
:103420008860039900200882039988820399488262
:103430000399C882039908830399C86004B010BD3A
:1034400080B58CB00B900AA80170002009900890FC
:103450007649088007A908700690FFE706980F28AC
:103460006BDCFFE7744800880699C840C007002855
:103470002BD0FFE70698012805DCFFE76B49088899
:10348000401D088020E00698022809DBFFE7069827
:10349000042805DCFFE7654908880830088012E049
:1034A0000698052809DBFFE706980A2805DCFFE7F0
:1034B0005E4908881230088004E05C4908881E30A4
:1034C0000880FFE7FFE7FFE7FFE75C480088069911
:1034D000C840C00700282BD0FFE70698012805DC6C
:1034E000FFE752490888401F088020E0069802281C
:1034F00009DBFFE70698042805DCFFE74B4908884D
:103500000838088012E00698052809DBFFE70698CE
:103510000A2805DCFFE7454908881238088004E0DE
:10352000424908881E380880FFE7FFE7FFE7FFE70A
:10353000FFE70698401C069090E73D48017800227E
:103540003A480190805EFDF729F901460198018013
:1035500000880B9948820B9801680291122103910F
:10356000405EFDF767F801460298FCF795FE0146BC
:10357000039809910B998A680492085E1422895E67
:10358000401AFDF757F801460498FCF785FE0890AD
:103590000998FDF775F805900898FDF771F8014650
:1035A000059840180B9908830B99488A88820B98D4
:1035B0001821405E422804DBFFE70B994120088375
:1035C000FFE70B981821405E4121C943884204DC83
:1035D000FFE70B9917480883FFE70AA8007801283E
:1035E0000CD1FFE70B981821405E002805D5FFE7B6
:1035F0000B99088B40420883FFE711E00AA8007886
:1036000002280CD1FFE70B981821405E012805DB4A
:10361000FFE70B99088B40420883FFE7FFE7FFE7CE
:103620000B981821405E0CB080BDC04622052020BA
:10363000C3042020BFFF0000B8082020BA082020C3
:1036400080B588B0079006910020059004900698F8
:103650002749FCF721FEFDF713F8079948820798E0
:103660000168009112210191405EFCF7E3FF0146E1
:103670000098FCF711FE01460198059107998A68A8
:103680000292085E1422895E401AFCF7D3FF0146BD
:103690000298FCF701FE04900799488A88820598F1
:1036A000FCF7EEFF03900498FCF7EAFF014603984D
:1036B00040180799088307981821405EFF2192312E
:1036C000884205DBFFE70799192000010883FFE71F
:1036D00007981821405E0749884204DCFFE70799F4
:1036E00005480883FFE707981821405E08B080BDB1
:1036F0000000A0406FFEFFFF70FE000080B5AAB082
:1037000028902791269225937F20C00524900020A1
:103710002390229021902598019079480090794833
:1037200079491CAA20AB01F001FD002804D0FFE775
:1037300029A901200870DEE071480088002800D126
:10374000D5E01C98FCF776FF9D21C9050291FCF796
:10375000E0FD24901D98FCF76DFF0299FCF7D9FD60
:1037600023901E98FCF766FF0299FCF7D2FD229089
:103770001F98FCF75FFF0299FCF7CBFD219023987F
:10378000032189070891FCF787FD04902198039095
:1037900024990846FCF727FD2299FCF77DFD039943
:1037A000024604980592FCF777FD0599FCF71BFD8E
:1037B000FCF7A4FF06F0DCF8544A1A92544B1B9312
:1037C000FCF798FEFCF7AEFF289908602299099152
:1037D0000846FCF708FD0A902198069024990846AF
:1037E000FCF701FD23990B91FCF756FD0699024663
:1037F0000A980792FCF750FD0799FCF7F4FCFCF7D8
:103800007DFF02460B980E920A4608990F92FCF72C
:1038100043FD099902460A980C92FCF73DFD0B996D
:1038200002460C980D92FCF737FD0D99FCF72CFD24
:103830007F21C905FCF7D7FCFCF760FF02460E9814
:103840000B460F9906F0DCFA1A9A1B9BFCF752FE06
:10385000FCF768FF2799086023981190229814902C
:103860002498129021991691FCF716FD149902469E
:1038700011981092FCF710FD1099FCF7B4FC01466A
:103880000846FCF7B0FCFCF739FF18900846119980
:1038900019900846FCF700FD129913900846FCF7B2
:1038A000FBFC1399FCF79FFC149915900846FCF754
:1038B000F3FC01461598FCF7E7FC169917900846AB
:1038C000FCF7EAFC01461798FCF7DEFCFCF716FF54
:1038D000024618980B46199906F092FA1A9A1B9B01
:1038E000FCF708FEFCF71EFF26990860FFE729A9F0
:1038F00000200870FFE729A800782AB080BDC046E4
:10390000B0082020580820206005202066666666E2
:1039100066A64C4010B594B0169C1390129111926B
:10392000109313981299119A654BFFF7E7FE1698BA
:1039300000886449884205DCFFE716990888401C26
:103940000880FFE7169801880C915F4A01200D90CE
:1039500000230E9391420F9001DC0E980F900D986A
:103960000C990F9A0A92594A91420B9001DB0E98DA
:103970000B900A980B9908423FD0FFE716980088F1
:103980005949884208D1FFE7584805F0CFFA119805
:10399000006857490860FFE7119800685449099189
:1039A0000968FCF771FC0146494808900068FCF77B
:1039B0001AFC089A09991060119800680860169816
:1039C00000884049884217D1FFE71099012008700C
:1039D00011980068474908603D48069000684649CC
:1039E000FCF797FC069908601420079004F000FC8F
:1039F000079801F019FDFFE760E016980088334949
:103A000088425ADBFFE73248016832480590006877
:103A1000FCF7E9FB014605980160016811980490E4
:103A20000068FCF731FC049A0146059811600068B3
:103A30002949FCF7C7FD002809D1FFE72548039075
:103A400000682649FCF7CFFB0399086011E0214884
:103A500000682249FCF7D2FD002809D1FFE71D4884
:103A6000029000681C49FCF7BEFB02990860FFE762
:103A7000FFE7119800681A49FCF7C0FD002809D13A
:103A8000FFE71198019000681349FCF7ACFB01991E
:103A9000086011E0119800681249FCF793FD0028B6
:103AA00009D1FFE71198009000680C49FCF79BFBD7
:103AB00000990860FFE7FFE7FFE7FFE714B010BDDC
:103AC000680820207017000087130000711700009D
:103AD000040520200C0520200000B4430000B4C3DE
:103AE000000034C300003443881300000EB500000A
:103AF00008052020B408202000007A4480B592B048
:103B00000920FDF7DFF90A20FDF7DCF91F200390FB
:103B100006210591FDF708FA01200E90C1036B48BC
:103B20001190FDF779F9059920200490FDF7FCF933
:103B30000E99119809040791FDF76EF903980599FC
:103B4000FDF7F2F904980599FDF7EEF9079B0E9839
:103B500000220A920192C0040B90009005210846B1
:103B6000FDF7C6F9079B0A9A0B990E9801920091EE
:103B700007210691FDF7BCF90699079B0A9A0B9855
:103B80000192009002200890FDF7B2F9079B0A9A73
:103B90000B980192009004211046FDF7A9F90899AD
:103BA0001420FDF7C1F908990A9B0B980193009026
:103BB00015201A46FDF79CF908993020FDF78CF97D
:103BC0000A9A0E9801920092430409931920032146
:103BD0000D91FDF7B5F9099B0A9A0D990192009292
:103BE0001820FDF7ADF90A9A0B9B0092252011468B
:103BF000FDF73CF91A20FDF751F91B20FDF74EF9AE
:103C00001E20FDF74BF93820FDF748F91C20FDF781
:103C100045F91D20FDF742F90E20FDF73FF90F2071
:103C2000FDF73CF92220FDF739F92120FDF736F99F
:103C30000A9A0B9B00922E201146FDF717F91720C8
:103C4000FDF72CF91020FDF729F90A9A0B9B009239
:103C500011201146FDF70AF91620FDF71FF9322051
:103C6000FDF71CF90A9A0B9B009239201146FDF7CB
:103C7000FDF80D9801030C91DC480F90FDF7B0F9A9
:103C80000C990F98FDF7C8F80E990F984903FDF7A6
:103C9000E9F90D990F98FDF7D7F90E990F98890555
:103CA0001091FDF761F80F981099FDF7A7F811989A
:103CB0000749FDF771F811980649FDF791F9119838
:103CC0000549FDF7A9F812B080BDC04600200A40A2
:103CD000D00480040C780000DC7C800480B586B0C1
:103CE0001F49C4480590FDF741FF05981D49FDF7A0
:103CF000F5FC05980023029319461A46FDF74EFF7E
:103D0000029B05980093102201921946FDF7F8FED8
:103D1000029A05981146FDF76DFE029A05987D21DD
:103D2000C9000391FDF70CFF019A029B0598012140
:103D3000049100911946FDF7E3FE0299049A059853
:103D4000FDF758FE0399049A0598FDF7F9FE0598CA
:103D5000FDF7F4FB05980321FDF742FE06B080BD98
:103D6000BEB20000C4B2000080B582B00B49A548C5
:103D70000190FDF711FA01980949FDF7B7F901988B
:103D80000421FDF7F9F9019810210222FDF716FA36
:103D90000198FDF795F902B080BDC046CCB2000095
:103DA000CEB2000080B584B000200290FDF7E0FAAA
:103DB0000120039040020190FDF7E6FA0298FDF71A
:103DC00067FBFDF7A1FAFDF7ADFA029A03200003A5
:103DD0001146FDF7F5FA0C48FDF714FA1020FDF72F
:103DE00065FB0920FDF7DEFAFDF7ACFAFDF7B2FA44
:103DF0000198FDF73DFB0298FDF764FB0399084627
:103E000000F0D0FE04B080BDD8B2000080B582B012
:103E10000A4979480190FDF7A9FE01980849FDF784
:103E2000D1FC01980121FDF793FB1120002100F046
:103E3000B9FE0198FDF782FB02B080BD00B300001F
:103E400004B3000080B582B00B496C480190FDF7C7
:103E50008DFE01980949FDF7B5FC019801210091FB
:103E6000FDF776FB0099102000F09CFE0198FDF70D
:103E700065FB02B080BDC04618B300001CB3000053
:103E800080B582B010495E480190FDF76FFF019840
:103E90000E49FDF7FFFE01980021FDF779FF01981B
:103EA00015212D22FDF73CFF019801210091890287
:103EB000FDF7CCFE00990F2000F074FE0198FDF78D
:103EC000BAFE02B080BDC04630B3000032B300007D
:103ED00080B500F02FF8FFF711FEFFF763FFFFF743
:103EE000FDFE00F0D7F800F0F7F800F08FF800F0D2
:103EF000AFF8FFF78BFFFFF7A5FFFFF7C1FFFFF755
:103F000033FF07499C22002088540649B823C8542F
:103F10000549C8540549885405492422885480BD60
:103F200078052020E00620209C0720204006202045
:103F30001806202080B58CB02C480090FDF73EF884
:103F40002B480190FDF73AF82A480290FDF740FD12
:103F50005F480390FDF73CFD6E480490FDF738FD87
:103F600039480590FDF734FD48480690FDF730FDCF
:103F700021480790FDF72CFD20480890FDF728FD0B
:103F80001F480990FDF7C0FE1E480A90FDF7E8F8AB
:103F90001D480B90FDF78AF80098FCF753FF019835
:103FA000FCF750FF0298FDF7E1FA0398FDF7DEFAFF
:103FB0000498FDF7DBFA0598FDF7D8FA0698FDF7A7
:103FC000D5FA0798FDF7D2FA0898FDF7CFFA0998C5
:103FD000FDF74AFE0A98FDF77DF80B98FDF75CF8AF
:103FE0001020FCF753FE0CB080BDC04600000A4014
:103FF00000200A4000A08640008086400040084023
:104000000080104000A046400000414080B582B0D2
:104010000C490D480190FDF7A9FD01980B49FDF7EA
:1040200005FB019801214A02002300931946FDF780
:104030004BFD00990198FDF76BFA0198FDF77EFAA8
:1040400002B080BD3CB300000020864040B30000B9
:1040500080B582B00C490D480190FDF787FD0198AD
:104060000B49FDF7E3FA019801214A02002300936E
:104070001946FDF729FD00990198FDF749FA0198C5
:10408000FDF75CFA02B080BD54B30000000086402A
:1040900058B3000080B582B00C490D480190FDF77F
:1040A00065FD01980B49FDF7C1FA019801230093C2
:1040B0005A020021FDF708FD00990198FDF728FA42
:1040C0000198FDF73BFA02B080BDC0466CB300001A
:1040D0000000874070B3000080B582B00C490D48E5
:1040E0000190FDF743FD01980B49FDF79FFA0198F8
:1040F00001214A02002300931946FDF7E5FC0099CF
:104100000198FDF705FA0198FDF718FA02B080BD95
:1041100084B300000000094088B3000080B584B07B
:10412000014603A80170007801282FD1FFE71D4840
:10413000007800280AD1FFE702F092F9002804D0A5
:10414000FFE7184901200870FFE7FFE715480078EE
:1041500001281AD1FFE702F0AFFE002814D0FFE7D4
:10416000BE4801218B070293BD490091BD4A0192CF
:10417000FFF748F90099019A029BBB48FFF742F903
:10418000084902200870FFE7FFE709E003A800786C
:10419000002804D1FFE7034900200870FFE7FFE78C
:1041A00004B080BD1405202080B584B0014603A86A
:1041B00001700078012860D1FFE7364800780028B8
:1041C0000AD1FFE702F04CF9002804D0FFE731499B
:1041D00001200870FFE74FE02E48007801280AD13F
:1041E000FFE704F079FA002804D0FFE7294902200C
:1041F0000870FFE73FE02748007802280AD1FFE770
:1042000002F06EF9002804D0FFE72249032008706D
:10421000FFE72FE01F48007803280AD1FFE704F0EA
:1042200017FB002804D0FFE71A4904200870FFE7B5
:104230001FE01848007804281AD1FFE702F03CFE7E
:10424000002814D0FFE71349052008708348012196
:104250008B07029382490091824A0192FFF7D2F8BC
:104260000099019A029B8048FFF7CCF8FFE7FFE72F
:10427000FFE7FFE7FFE7FFE709E003A80078002872
:1042800004D1FFE7034900200870FFE7FFE704B00F
:1042900080BDC0461505202080B590B001460EA80F
:1042A00001700078012800D0C3E06B480078002836
:1042B0000AD1FFE702F05EF9002804D0FFE7664963
:1042C00001200870FFE7B3E06348007801281AD1A5
:1042D000FFE702F0F1FD002814D0FFE75E4902205D
:1042E0000870F94801218B070D93F8490B91F84AA2
:1042F0000C92FFF787F80B990C9A0D9BF548FFF786
:1043000081F8FFE793E05448007802280AD1FFE7DC
:1043100004F074FB002804D0FFE74F490320087025
:10432000FFE783E04C48007803281AD1FFE702F04A
:10433000C3FD002814D0FFE7474904200870E24875
:1043400001218B070A93E1490891E14A0992FFF79D
:1043500059F80899099A0A9BDE48FFF753F8FFE7D6
:1043600063E03D48007804280AD1FFE702F068F9CD
:10437000002804D0FFE7384905200870FFE753E024
:104380003548007805281AD1FFE702F095FD00288E
:1043900014D0FFE7304906200870CB4801218B0775
:1043A0000793CA490591CA4A0692FFF72BF8059967
:1043B000069A079BC748FFF725F8FFE733E0264832
:1043C000007806280AD1FFE704F05EFC002804D03C
:1043D000FFE7214907200870FFE723E01E48007827
:1043E00007281ED1FFE702F067FD002818D0FFE77D
:1043F000194908200870B448012104918B070393E0
:10440000B2490191B24A0292FEF7FCFF0199029A69
:10441000039BB048FEF7F6FF04980FA9087016E05A
:10442000FFE7FFE7FFE7FFE7FFE7FFE7FFE7FFE75C
:1044300009E00EA80078002804D1FFE70649002013
:104440000870FFE7FFE70FA900200870FFE70FA83B
:10445000007810B080BDC0461605202074082020CA
:104460000000C0408FC2753C9008202080B582B00B
:10447000014601A801700078012815D1FFE7104816
:10448000007803280FDCFFE70120FFF705FF002875
:1044900008D0FFE70020FFF7FFFE09490878401C1D
:1044A0000870FFE7FFE709E001A80078002804D1C1
:1044B000FFE7034900200870FFE7FFE702B080BD77
:1044C0001705202080B598B07D48FDF7A6F8012893
:1044D00000D0F2E0FEF716F801467A480170007845
:1044E000401E1790042872D81798810001A04058E8
:1044F0008746C046094500002F450000574500008B
:104500007F450000A7450000734801210170E44881
:104510008B0716936D4914916D4A1592FEF772FF41
:104520001499159A169BE048FEF76CFF50E06A4913
:1045300002200870DA4801218B0713936349119117
:10454000634A1292FEF75EFF1199129A139BD648A6
:10455000FEF758FF3CE0604903200870D048012175
:104560008B07109359490E91594A0F92FEF74AFF53
:104570000E990F9A109BCC48FEF744FF28E056494D
:1045800004200870C64801218B070D934F490B91F9
:104590004F4A0C92FEF736FF0B990C9A0D9BC248BE
:1045A000FEF730FF14E0BE4801218B070A9347490C
:1045B0000891474A0992FEF725FF0899099A0A9B34
:1045C000B948FEF71FFF44490520087000E0FFE7E7
:1045D000FDF702FF414908703F480078012804D1E7
:1045E000FFE70120FFF79AFD66E03B4800780228CC
:1045F00004D1FFE70120FFF7D7FD5CE036480078E3
:10460000032804D1FFE70120FFF746FE52E03248BD
:104610000078042804D1FFE70120FFF727FF48E0D6
:104620002D480078052843D1FFE700200790FFF7C9
:1046300075FD0798FFF7B8FD0798FFF72DFE07985F
:10464000FFF714FF944926480880954801210591F9
:104650008B0703931D4901911D4A0292FEF7D2FE7A
:104660000199029A039B9048FEF7CCFE079A1D48D9
:1046700004901146FDF764FA0498059A0799FDF72E
:104680005FFA0598410318480690FCF77BFB0599F3
:1046900006980903FCF79AFC06980421FCF772FBC4
:1046A00006980821FCF792FC07980B490870FFE771
:1046B000FFE7FFE7FFE7FFE7FFE718B080BDC04671
:1046C0000040084018052020740820200000C04049
:1046D0008FC2753C90082020C8042020C3042020ED
:1046E00030F8000000A0864000200A4080B592B05B
:1046F0005D48FCF792FF012800D0B3E05B480068FA
:104700005B49096840185B4908805B4800685B4961
:10471000096840185A4908805A48007800281DD076
:10472000FFE7544800210E91405E8010FBF794FF94
:104730000F9008460E99109053481190405EFBF779
:104740008BFF0E9A514BFBF7D5FE0F9A109BFBF790
:104750001FFEFBF7AFFF119908801DE045480021BF
:104760000A91405E80104042FBF776FF0B900846AE
:104770000A990C9044480D90405EFBF76DFF0A9A31
:10478000424BFBF7B7FE0B9A0C9BFBF701FEFBF7C6
:1047900091FF0D990880FFE73D48007800281DD063
:1047A000FFE7374800210691405E8010FBF754FF79
:1047B000079008460699089036480990405EFBF736
:1047C0004BFF069A314BFBF795FE079A089BFBF7C8
:1047D000DFFDFBF76FFF099908801DE028480021E5
:1047E0000291405E80104042FBF736FF039008467E
:1047F0000299049027480590405EFBF72DFF029A2E
:10480000224BFBF777FE039A049BFBF7C1FDFBF7F6
:1048100051FF05990880FFE71748002101601748FC
:10482000016012480160124801601B48405E1B494C
:10483000884216DBFFE7002201921748815E154887
:10484000825E1748FEF79EFC02F0F6F8019A1548C2
:10485000815E0D48825E1448FEF794FC02F026F952
:10486000FFE7FFE712B080BD008086400018874058
:10487000001809401C05202000388640001886409A
:104880001A05202009002020AE0820200000E83F63
:1048900008002020660820206408202031F8FFFF4F
:1048A00074082020AC0820209008202080B588B013
:1048B000014606A80180002105910491405E26284A
:1048C0006CD1FFE7734800680390002106A8405EA2
:1048D000FBF7B0FE01460398FBF7D6FC7349FBF7E4
:1048E00082FC059005986D49FBF76CFE002806D107
:1048F000FFE705986A49FBF776FC0590FFE7059806
:104900006849FBF77BFE002806D1FFE7059866495A
:10491000FBF769FC0590FFE75E4800680290002104
:1049200006A8405EFBF786FE01460298FBF7ACFC4A
:104930005949FBF758FC049004985849FBF742FE8C
:10494000002806D1FFE704985549FBF74CFC04907A
:10495000FFE704985349FBF751FE002806D1FFE713
:1049600004985149FBF73FFC0490FFE7504800686A
:104970000499FBF743FE00280CD1FFE74C48006880
:104980000599FBF71FFE002804D1FFE707A90120C6
:1049900008707AE007A90020087076E0002106A8D8
:1049A000405E8D286CD1FFE73A48006801900021F5
:1049B00006A8405EFBF73EFE01460198FBF764FC4B
:1049C0003549FBF710FC059005983449FBF7FAFDD3
:1049D000002806D1FFE705983149FBF704FC059054
:1049E000FFE705982F49FBF709FE002806D1FFE7EE
:1049F00005982D49FBF7F7FB0590FFE72548006870
:104A00000090002106A8405EFBF714FE01460098C6
:104A1000FBF73AFC2549FBF7E6FB049004981F4995
:104A2000FBF7D0FD002806D1FFE704981C49FBF7EF
:104A3000DAFB0490FFE704981A49FBF7DFFD002832
:104A400006D1FFE704981849FBF7CDFB0490FFE778
:104A5000174800680499FBF7B5FD00280CD1FFE763
:104A6000134800680599FBF7C9FD002804D1FFE74A
:104A700007A90120087008E007A90020087004E0D9
:104A8000FFE707A900200870FFE707A8007808B033
:104A900080BDC046B40820200000A0400000344380
:104AA0000000B4C3000034C30000B4430000A0C041
:104AB0004005202080B51648FDF7E2F80B2826D1E6
:104AC000FFE71348FDF716F9014612480170017817
:104AD00011480388114AD1540188491C018000887B
:104AE000282807DBFFE70C4908880D4A10800020C2
:104AF0000880FFE7074800780A2807D1FFE7064942
:104B00000888074A108000200880FFE7FFE780BD83
:104B100000801040200520201E052020D8042020E1
:104B20000005202081B001466846017000214056F2
:104B3000002809D4FFE7684601781F2001400120C2
:104B4000884002490860FFE701B0704780E200E05A
:104B500081B001466846017000214056002809D402
:104B6000FFE7684601781F200140012088400C497A
:104B70000860FFE701B0704781B0014668460170E8
:104B800000214056002809D4FFE7684601781F201D
:104B900001400120884002490860FFE701B07047EA
:104BA00000E100E070B582B0024601A802700091F9
:104BB00000214056002816D4FFE7002401A9085719
:104BC0000322D3431840174A805809578C07E50E33
:104BD000FF24AC40A043009CA401E4B2AC402043BD
:104BE000194088501AE001A908780F24204008389D
:104BF0000322D34318400A4A8058002549578D079D
:104C0000EE0EFF25B540A843009DAD01EDB2B540C5
:104C100028432140083919408850FFE702B070BD91
:104C20001CED00E000E400E0BFF34F8F03490448AF
:104C30000860BFF34F8FFFE700BFFDE70CED00E01A
:104C40000400FA0580B58AB0099008910020009010
:104C5000069003A800F098FF00980790FFE70798D8
:104C6000022856DCFFE7099807998A0080580899BE
:104C70008958401AC1174840401AFBF7DBFC8F21C6
:104C8000C905FBF746FB02900798810003A840582E
:104C90000021FBF7C1FC00281ED1FFE7029807990D
:104CA0008A0003A98958FBF734FB1C49FBF79BFAE0
:104CB000019001980121C90788431749496AFBF708
:104CC00081FC002807D1FFE7079801218140069861
:104CD00008430690FFE717E002980F49C969FBF700
:104CE0007FFC002808D1FFE702980B49096AFBF70F
:104CF00069FC002807D1FFE7079801218140069849
:104D000008430690FFE7FFE7FFE70798401C07907E
:104D1000A5E706980AB080BDACB50000000080BFD2
:104D200080B586B005900598C078C021084003A9D9
:104D300008700598C0783F21084004A908700598BC
:104D40004078C007002819D0FFE704A80178C908F7
:104D500002AA1170007807210840401C01A90870C0
:104D6000C0480068002808D0FFE7BE48026802A8D3
:104D7000007801A909789047FFE7FFE70598407898
:104D8000000700280DD5FFE7B6484068002807D087
:104D9000FFE7B448416803A8007880098847FFE727
:104DA000FFE7002006B080BD80B582B0014601A8B3
:104DB0000170007800280AD0FFE7694620200870BB
:104DC00028204870302088703820C87002E00648DB
:104DD0000090FFE7054804216A4603F019FB02F042
:104DE00085FD02B080BDC046A3A3A3A39E0A000018
:104DF00080B58AB009A90591088006AA049202200C
:104E00001070CA205070E32090700920D070682084
:104E1000042103F0FDFA049A0598A321117000887B
:104E20004006002808D5FFE706A9C0204870C82022
:104E30008870C220C87005E006A9A3204870887059
:104E4000C870FFE709A80088C005800F002808D0B7
:104E5000FFE706A9C4200871CC204871C6208871DC
:104E600005E006A9A320087148718871FFE706AA2A
:104E7000A320D0711072507275480A2103F0C8FA4D
:104E800009A800888007002804D0FFE706A9202091
:104E9000087003E006A9D8200870FFE76D480121DB
:104EA00006AA03F0B5FA09A800888006002804D5F0
:104EB000FFE7012000F0D8F803E0002000F0D4F86C
:104EC000FFE709A80088C005800F002820D0FFE771
:104ED00009A80088C00500280AD5FFE706A9B22066
:104EE00008708B204870B62088709B20C87009E03D
:104EF00006A9B020087080204870B42088709020E7
:104F0000C870FFE75448042106AA03F081FAFFE7BE
:104F100009A80088C007002826D0FFE706AAF820C5
:104F200010708B2000010121039103F071FA07201A
:104F30000290FA2100F0C6FC029800F06DFC039884
:104F400000F09DFC642000F0D9FD7D20800000F081
:104F5000EDFD4248C82100F00BFC282000F02AFC9F
:104F60000A2000F040FC08E006AAD82010708B2030
:104F70000001012103F04CFAFFE709A8008880072F
:104F8000002804D5FFE706A9D920087003E006A988
:104F9000D8200870FFE73248012106AA03F038FA4A
:104FA00009A800884007002804D5FFE7012000F089
:104FB0008BF803E0002000F087F8FFE709A80088DD
:104FC000C006002804D5FFE70120FFF7EDFE03E04F
:104FD0000020FFF7E9FEFFE7099808210843CE49C2
:104FE0000191488102F082FC01990020887309A890
:104FF00000884006002805D5FFE7C749887B801D4B
:105000008873FFE709A80088C005800F002805D035
:10501000FFE7C149887B801D8873FFE709A80088E6
:105020001421084205D0FFE7FE49887B10308873C1
:10503000FFE709A800888007002805D0FFE7F949A5
:10504000887B001D8873FFE700200AB080BDC04642
:10505000A70A0000B60A0000A20A000009E3CA027B
:105060003D0700006805202080B588B0014606A8ED
:105070000170007800280ED0FFE703AA5D201072AF
:105080000F4804900F4803909720C000092103F0B7
:10509000BFF907900DE06A46C720107206480190DC
:1050A000064800909720C000092103F0B1F907904D
:1050B000FFE7079808B080BDB088C3C5B8AAAAAA00
:1050C000B4980D35B8AAB38D80B582B0014601A859
:1050D0000170007800280AD0FFE76946C0200870F8
:1050E000C2204870C4208870C620C87002E00648FC
:1050F0000090FFE7054804216A4603F089F902F0B1
:10510000F5FB02B080BDC0468B8B8B8B980A0000EC
:1051100080B50449012082020348C82302F0F4F953
:1051200080BDC046C8A60000F60B000010B594B0C4
:10513000179C169C1290119110920F9306A90020B3
:10514000087016990880DD48807B179A07A902F03D
:10515000F5FA002804D0FFE70020C0431390D7E001
:10516000D6484089142108426CD0FFE70798000612
:1051700007A900914A78120480188A7812028018D0
:10518000CA788018109A1060089800064A791204AC
:1051900080188A7912028018CA798018109A506093
:1051A000099800064A7A120480188A7A1202801836
:1051B000CA7A8018109A90600A9800064A7B1204F6
:1051C00080188A7B12028018C97B40181099C86029
:1051D0000698103006A9087010980221405E0290CF
:1051E00010980621405E039010980A21405E0490BA
:1051F00010980E21405E0590029840430399494360
:1052000040180499494340180599494340180190B2
:1052100001980F210906884205DBFFE701983F4905
:10522000884208DBFFE702F061FB16990020088046
:10523000C04313906CE016990888012212021043B3
:105240000880FFE7EA4840894006002823D5FFE7A9
:1052500006A9087807AA1318105C00025B78C0182A
:10526000119B18800878831898780002DB78C018A2
:10527000119B5880087882181079000252798018A2
:10528000119A90800698801D087016990888082247
:1052900010430880FFE7D6484089C005800F0028EA
:1052A00023D0FFE706A9087807AA1318105C0002AC
:1052B0005B78C018129B18800878831898780002D1
:1052C000DB78C018129B5880087882181079000289
:1052D00052798018129A90800698801D087016994D
:1052E0000888702210430880FFE7C1484089800782
:1052F000002807D0FFE706A8017807A84018FFF7A5
:105300000FFDFFE70F9803F0D9F800201390FFE797
:10531000139814B010BDC04668052020010000118C
:1053200080B58CB00B9001A8009001F0DFFE0098D2
:105330000088C0030021039102900B99AC480289B8
:105340009207120F8958089100894007002804D558
:10535000FFE7089840420890FFE70B99A4480289AC
:1053600052080C231A4089580991008980060028A8
:1053700004D5FFE7099840420990FFE70B99FB48E5
:10538000028912090C231A4089580A910089C00524
:10539000002804D5FFE70A9840420A90FFE70898E2
:1053A000C117029A039BFAF7C5FE8900800F4018C7
:1053B00008900998C117029A039BFAF7BBFE89006F
:1053C000800F401809900A98C117029A039BFAF7B8
:1053D000B1FE8900800F40180A9008A8C17805AA7C
:1053E0001170418851700899090A91700899D1701B
:1053F000C1791171C18851710999090A917109998D
:10540000D171C17A1172408950720A98000A907263
:105410000A98D072A52080000C2102F0F9FF0CB090
:1054200080BDC0466805202080B588B0014606A82A
:1054300001801D4905911D4904911D490391008872
:10544000C92804DBFFE70020C043079029E006A835
:105450000188C820FBF782F9411E02A8018040782C
:105460006A461070029850701248022102F0D0FF74
:10547000002804D0FFE70020C043079011E00E4849
:105480000C2103AA02F0C4FF002804D0FFE700208B
:10549000C043079005E00698B44988810020079032
:1054A000FFE7079808B080BDBBAFDFDFAAF1DFDF01
:1054B000FEF2ABC416020000C10A000068052020FD
:1054C00080B588B006900699A84802899207120F05
:1054D0008958039100894007002804D5FFE7039805
:1054E00040420390FFE70699A048028952080C2326
:1054F0001A408958049100898006002804D5FFE7E6
:10550000049840420490FFE70699984802891209DE
:105510000C231A40895805910089C005002804D53C
:10552000FFE7059840420590FFE70398C117314A0D
:10553000009200230193FAF7FDFD009A019B890078
:10554000800F401803900498C117FAF7F3FD009AF2
:10555000019B8900800F401804900598C117FAF745
:10556000E9FD8900800F4018059003A8C17802AAC0
:105570001170408850700398000A90700398D070A2
:105580003D200001042102F043FF002804D0FFE782
:105590000020C043079028E003A8C17902AA117037
:1055A000C08850700498000A90700498D070F5205C
:1055B0008000042102F02CFF002804D0FFE7002027
:1055C000C043079011E003A8C17A02AA1170408974
:1055D00050700598000A90700598D0707B20C0002C
:1055E000042102F015FF0790FFE7079808B080BD7F
:1055F0006805202009E3CA02B0B588B006AB188060
:1056000003AC6C20A0705248208002A82C2181702D
:105610005049018001AA762191704F4911806A4654
:10562000662191704D4911801A8803210A40A55CBA
:1056300005AA1570069DED06AD0F655D5570069DBA
:105640002D06AD0F645D94701B880B40C45C04ABE9
:105650001C70069CE406A40F045D5C70069C240686
:10566000A40F005D98703E4802F0D2FE002804D0DE
:10567000FFE70020C043079066E03A48032104AAF0
:1056800002F0C6FE002804D0FFE70020C0430790C8
:105690005AE0019805A9088001A8807888706846BA
:1056A000807804A988700098088006A800884007C0
:1056B00000280AD5FFE705980121084305AA1070C4
:1056C0000498084304A90870FFE706A8008880062C
:1056D00000280AD5FFE705A9487801221043487041
:1056E00004A9487810434870FFE706A80088C00561
:1056F00000280AD5FFE705A98878012210438870A1
:1057000004A9887810438870FFE7112080010321E5
:1057100005AA02F07DFE002804D0FFE70020C04368
:10572000079011E01048032104AA02F071FE00283E
:1057300004D0FFE70020C043079005E006980B491E
:10574000088100200790FFE7079808B0B0BDC04669
:105750004CCD00000CC90000365600002646000063
:10576000260400002A0400003104000068052020FF
:1057700080B586B0059004A80190018005987D2130
:10578000C900FBF70BF801460198008848430290D6
:1057900002A8C17803AA1170408850700298000ACC
:1057A00090700298D07057208000042102F030FEE3
:1057B00006B080BD80B584B0014603A80190018089
:1057C00000880521FAF7CAFF014601980180407858
:1057D00002AA107003985070AD204000022102F020
:1057E00017FE04B080BD80B584B0014603A80190C7
:1057F000018000880521FAF7B1FF01460198018078
:10580000407802AA1070039850702B20C00002212B
:1058100002F0FEFD04B080BD80B582B0014601A853
:1058200001706A46002111700078C007002806D078
:10583000FFE700983021084369460870FFE701A898
:1058400000788007002806D5FFE700980C21084360
:1058500069460870FFE701A800784007002806D5D0
:10586000FFE700980321084369460870FFE72920F5
:10587000C00001216A4602F0CBFD02B080BD80B5B8
:1058800082B0014601A801700078002804DCFFE71F
:1058900001A90120087009E001A80078052804DBAF
:1058A000FFE701A904200870FFE7FFE70198401E09
:1058B0006A461070FF205030012102F0A9FD02B0AD
:1058C00080BD000080B58AB0024608A8027007AA11
:1058D000118000784007002806D0FFE707A800885D
:1058E0008049884204DBFFE70020C0430990F5E0CF
:1058F00007A80088FAF7A9FE7B49FAF70AFD049089
:1059000005A8009001F0BAFB00980078801E019075
:105910000E286BD80198810001A040588746C046E8
:105920005D590000ED59000081590000ED5900005B
:10593000ED590000ED590000A5590000ED59000097
:10594000ED590000ED590000ED590000ED5900003F
:10595000ED590000ED590000C959000004988D214F
:10596000C905FAF799FCFAF78BFE03A90880049899
:105970006149FAF791FCFAF783FE02A9088039E041
:10598000049823214906FAF787FCFAF779FE03A960
:10599000088004985749FAF77FFCFAF771FE02A9CC
:1059A000088027E004988B21C905FAF775FCFAF7FF
:1059B00067FE03A9088004984D49FAF76DFCFAF7D1
:1059C0005FFE02A9088015E0049845210906FAF750
:1059D00063FCFAF755FE03A9088004984349FAF7D7
:1059E0005BFCFAF74DFE02A9088003E00020C043EB
:1059F000099073E003A8407806A9087003984870DE
:105A000002A8407888700298C87008A80078C0077B
:105A100000281CD0FFE775208000022106AA02F0B2
:105A2000F7FC002804D0FFE70020C043099055E0B0
:105A300006A8821C49208000022102F0E9FC00280F
:105A400004D0FFE70020C043099047E0FFE708A823
:105A50000078800700281CD5FFE73B20C00002210A
:105A600006AA02F0D5FC002804D0FFE70020C043BE
:105A7000099033E006A8821C2520C000022102F014
:105A8000C7FC002804D0FFE70020C043099025E0B0
:105A9000FFE708A80078400700281CD5FFE777201B
:105AA0008000022106AA02F0B3FC002804D0FFE720
:105AB0000020C043099011E006A8821C4B20800002
:105AC000022102F0A5FC002804D0FFE70020C0431B
:105AD000099003E0FFE700200990FFE709980AB06A
